:020000040800F2
:10000000600600206D0100087501000877010008F6
:10001000790100087B0100087D0100080000000054
:100020000000000000000000000000007F01000848
:10003000810100080000000083010008850100081C
:100040008701000887010008870100088701000870
:100050008701000887010008750200088701000871
:1000600087010008A1020008D502000887010008E6
:100070008701000887010008870100088701000840
:100080008701000887010008870100088701000830
:100090008701000887010008870100081103000894
:1000A0008701000887010008870100088701000810
:1000B0008701000887010008870100088701000800
:1000C00087010008870100088701000887010008F0
:1000D00087010008870100088701000887010008E0
:1000E00087010008870100088701000800F002F876
:1000F00000F02CF80AA090E8000C82448344AAF196
:100100000107DA4501D100F021F8AFF2090EBAE893
:100110000F0013F0010F18BFFB1A43F0010318473B
:1001200034090000440900000023002400250026B3
:10013000103A28BF78C1FBD8520728BF30C148BF4A
:100140000B6070471FB51FBD10B510BD00F058F80B
:100150001146FFF7F7FF00F071FC00F076F803B4EA
:10016000FFF7F2FF03BC00F07DF80000094880476C
:1001700009480047FEE7FEE7FEE7FEE7FEE7FEE789
:10018000FEE7FEE7FEE7FEE704480549054A064BA1
:100190007047000081090008ED00000860000020A1
:1001A0006006002060020020600200204FF0000284
:1001B00000B5134694469646203922BFA0E80C505D
:1001C000A0E80C50B1F12001BFF4F7AF090728BF38
:1001D000A0E80C5048BF0CC05DF804EB890028BFB4
:1001E00040F8042B08BF704748BF20F8022B11F0DD
:1001F000804F18BF00F8012B704770477047704759
:10020000754600F02BF8AE4605006946534620F0CF
:100210000700854618B020B5FFF7B6FFBDE82040BF
:100220004FF000064FF000074FF000084FF0000BB2
:1002300021F00701AC46ACE8C009ACE8C009ACE865
:10024000C009ACE8C0098D46704710B50446AFF34D
:1002500000802046BDE81040FFF781BF004870478E
:100260000000002001491820ABBEFEE72600020076
:100270007047000000B50848006800F0010048B170
:100280000648006800F0010020B101200249086022
:1002900000F054F800BD000014040140080C0140B7
:1002A00000B50A48006800F0080068B10848006816
:1002B00000F0080040B10548006840F0080003491C
:1002C0000860012000F03AF800BD0000140401406D
:1002D000080801400C48006800F0100090B10B487D
:1002E000006800F0100068B10748006840F0100096
:1002F000054908600548001D006880F008000349B2
:10030000091D0860704700001404014008080140FE
:1003100000B50848006800F0200050B106480068A9
:1003200000F0200028B1202002490860012000F0E0
:1003300005F800BD1404014008080140012805D15A
:100340000349096881F00801014A11607047000003
:100350000C08014030B50B69012B7DD172B6DD4B25
:100360009B6943F00103DB4CA3610B68032B2DD881
:10037000D94B9B680C78A5000F24AC40A343D64C06
:10038000A36023469B680C78A40002FA04F423437C
:10039000D14CA360D14B1B680D780124AC402343A2
:1003A000CE4C2360CD4B08331B680D780124AC4044
:1003B0002343CA4C08342360231D1B680D78012495
:1003C000AC40A343C54C0C342360A2E00B68072B60
:1003D00032D80B68032B2FD9BF4BDB680C78241F56
:1003E000A5000F24AC40A343BB4CE3602346DB686D
:1003F0000C78241FA40002FA04F42343B64CE360F3
:10040000B64B1B680D780124AC402343B34C2360EA
:10041000B24B08331B680D780124AC402343AF4C2A
:1004200008342360231D1B680D780124AC40A343CE
:10043000AA4C0C3423606CE00B680B2B34D80B688F
:10044000072B31D9A44B1B690C78083CA5000F245D
:10045000AC40A343A04C00E05DE0236123461B6950
:100460000C78083CA40002FA04F423439A4C23615C
:100470009A4B1B680D780124AC402343974C2360B2
:10048000964B08331B680D780124AC402343934CF2
:1004900008342360231D1B680D780124AC40A3435E
:1004A0008E4C0C34236034E00B680F2B31D80B6872
:1004B0000B2B2ED9884B5B690C780C3CA5000F24C4
:1004C000AC40A343844C636123465B690C780C3CCD
:1004D000A40002FA04F423437F4C63617F4B1B6842
:1004E0000D780124AC4023437C4C23607B4B0833C4
:1004F0001B680D780124AC402343784C08342360FA
:10050000231D1B680D780124AC40A343734C0C34AD
:10051000236062B6DCE00B69022BFBD172B66D4B37
:100520009B6943F001036B4CA3610B68032B2DD82F
:10053000694B9B680C78A5000F24AC40A343664C24
:10054000A36023469B680C78A40002FA04F42343BA
:10055000614CA360614B1B680D780124AC402343C0
:100560005E4C23605D4B0C331B680D780124AC405E
:1005700023435A4C0C342360231F1B680D7801243D
:10058000AC40A343554C08342360A0E00B68072B14
:1005900032D80B68032B2FD94F4BDB680C78241F04
:1005A000A5000F24AC40A3434B4CE3602346DB681B
:1005B0000C78241FA40002FA04F42343464CE360A1
:1005C000464B1B680D780124AC402343434C236009
:1005D000424B0C331B680D780124AC4023433F4C45
:1005E0000C342360231F1B680D780124AC40A34307
:1005F0003A4C083423606AE00B680B2B32D80B6846
:10060000072B2FD9344B1B690C78083CA5000F240D
:10061000AC40A343304C236123461B690C78083C53
:10062000A40002FA04F423432B4C23612B4B1B68D8
:100630000D780124AC402343284C2360274B0C3316
:100640001B680D780124AC402343244C0C342360F8
:10065000231F1B680D780124AC40A3431F4C0834B2
:10066000236034E00B680F2B31D80B680B2B2ED98D
:10067000194B5B690C780C3CA5000F24AC40A343DC
:10068000154C636123465B690C780C3CA40002FAAC
:1006900004F42343104C6361104B1B680D78012454
:1006A000AC4023430D4C23600C4B0C331C680D787D
:1006B0000123AB401C43094B0C331C601B1F1B6800
:1006C0000D780124AC40A343044C0834236062B687
:1006D00030BD000000100240000001400004014055
:1006E00010B52AB9C36801248C406340C36006E09A
:1006F000012A04D1C46801238B401C43C46010BD8F
:1007000070B588B005460C4600261C2101A8FFF7ED
:100710004DFD5B48854206D15A48806940F004008F
:10072000584988612AE05848854207D15548806970
:1007300040F008005349886101261FE05348854274
:1007400007D15048806940F010004E498861022668
:1007500014E04F48854207D14A48806940F02000A4
:1007600048498861032609E04A48854206D1454840
:10077000806940F0400043498861042620680728CA
:1007800032D8E068022814D0E068012811D0E0686F
:1007900003280ED0286821788A000C2191408843D4
:1007A00028602178890060688840296808432860AB
:1007B0004FE0E068022805D0E068012802D0E06838
:1007C000032846D1286821788A000F219140884368
:1007D00028606168E06840EA8100217889008840EB
:1007E00029680843286034E02068072831D9E06888
:1007F000022814D0E068012811D0E06803280ED048
:10080000686821788A000C219140884368602178CB
:1008100089006068884069680843686019E0E0689A
:10082000022805D0E068012802D0E068032810D132
:10083000686821788A000F21914088436860616868
:10084000E06840EA810021788900884069680843AF
:100850006860A068022804D12178012088402861BE
:1008600007E0A068012804D12078103001218140E0
:100870002961324621462846FFF76CFD08B070BD5D
:100880000008014000100240000C0140001001402F
:10089000001401400018014010B500F001F810BD2F
:1008A0000CB50020019000903348006840F480307F
:1008B0003149086000BF3048006800F40030009003
:1008C0000198401C0190009818B90198B0F5A06FEC
:1008D000F1D12948006800F4003010B101200090E7
:1008E00001E0002000900098012843D123480068CF
:1008F00040F01000214908600846006820F0070019
:1009000008600846006840F0020008601A48406825
:10091000194948600846406848600846406840F405
:10092000806048600846406820F47C1048600846B3
:10093000406840F4E81048600846006840F0807065
:10094000086000BF0C48006800F000700028F9D073
:100950000948406820F0030007494860084640689D
:1009600040F00200486000BF0348406800F00C00FF
:100970000828F9D10CBD0000001002400020024000
:1009800010B51348006840F001001149086008469E
:100990004068104908400E494860084600680E4902
:1009A00008400B4908600846006820F48020086071
:1009B0000846406820F4FE0048604FF41F0088603D
:1009C000FFF76AFF4FF000600449086010BD0000A7
:1009D000001002400000FFF8FFFFF6FE08ED00E007
:1009E00000B585B014216846FFF7E0FB03200090B6
:1009F00000200190032003900020029069460E48D9
:100A0000FFF77EFE04200090082001900020039054
:100A1000022002900120049069460748FFF770FE0B
:100A20000A20012181404209920002F1E022C2F82D
:100A3000001100BF05B000BD00080140FFF7D0FF66
:100A4000012203210248FFF74BFE62B600BFFEE71A
:100A500000080140640A0008000000206006000051
:040A60002801000861
:04000005080000ED02
:00000001FF
