:020000040800F2
:10000000600600206D0100087501000877010008F6
:10001000790100087B0100087D0100080000000054
:100020000000000000000000000000007F01000848
:10003000810100080000000083010008850100081C
:100040008701000887010008870100088701000870
:100050008701000887010008750200088701000871
:1000600087010008A1020008D502000887010008E6
:100070008701000887010008870100088701000840
:100080008701000887010008870100088701000830
:100090008701000887010008870100081103000894
:1000A0008701000887010008870100088701000810
:1000B0008701000887010008870100088701000800
:1000C00087010008870100088701000887010008F0
:1000D00087010008870100088701000887010008E0
:1000E00087010008870100088701000800F002F876
:1000F00000F02CF80AA090E8000C82448344AAF196
:100100000107DA4501D100F021F8AFF2090EBAE893
:100110000F0013F0010F18BFFB1A43F0010318473B
:100120006C0900007C090000002300240025002643
:10013000103A28BF78C1FBD8520728BF30C148BF4A
:100140000B6070471FB51FBD10B510BD00F058F80B
:100150001146FFF7F7FF00F08DFC00F076F803B4CE
:10016000FFF7F2FF03BC00F07DF80000094880476C
:1001700009480047FEE7FEE7FEE7FEE7FEE7FEE789
:10018000FEE7FEE7FEE7FEE704480549054A064BA1
:1001900070470000B9090008ED0000086000002069
:1001A0006006002060020020600200204FF0000284
:1001B00000B5134694469646203922BFA0E80C505D
:1001C000A0E80C50B1F12001BFF4F7AF090728BF38
:1001D000A0E80C5048BF0CC05DF804EB890028BFB4
:1001E00040F8042B08BF704748BF20F8022B11F0DD
:1001F000804F18BF00F8012B704770477047704759
:10020000754600F02BF8AE4605006946534620F0CF
:100210000700854618B020B5FFF7B6FFBDE82040BF
:100220004FF000064FF000074FF000084FF0000BB2
:1002300021F00701AC46ACE8C009ACE8C009ACE865
:10024000C009ACE8C0098D46704710B50446AFF34D
:1002500000802046BDE81040FFF781BF004870478E
:100260000000002001491820ABBEFEE72600020076
:100270007047000000B50848006800F0010048B170
:100280000648006800F0010020B101200249086022
:1002900000F054F800BD000014040140080C0140B7
:1002A00000B50A48006800F0080068B10848006816
:1002B00000F0080040B10548006840F0080003491C
:1002C0000860012000F03AF800BD0000140401406D
:1002D000080801400C48006800F0100090B10B487D
:1002E000006800F0100068B10748006840F0100096
:1002F000054908600548001D006880F008000349B2
:10030000091D0860704700001404014008080140FE
:1003100000B50848006800F0200050B106480068A9
:1003200000F0200028B1202002490860012000F0E0
:1003300005F800BD1404014008080140012805D15A
:100340000349096881F00801014A11607047000003
:100350000C08014030B502460020EA4B9A4200D119
:1003600012E0E94B9A4201D101200DE0E74B9A429D
:1003700001D1022008E0E64B9A4201D1032003E0BC
:10038000E44B9A4200D104200B69012B7ED172B656
:10039000E14B9B6943F00103DF4CA3610B68032B26
:1003A0002DD8DE4B9B680C78A5000F24AC40A343EE
:1003B000DA4CA36023469B680C78A40000FA04F48E
:1003C0002343D64CA360D64B1B680D780124AC4068
:1003D0002343D34C2360D24B08331B680D78012490
:1003E000AC402343CE4C08342360231D1B680D789A
:1003F0000124AC40A343CA4C0C342360A2E00B6838
:10040000072B32D80B68032B2FD9C44BDB680C7831
:10041000241FA5000F24AC40A343C04CE360234637
:10042000DB680C78241FA40000FA04F42343BB4CBF
:10043000E360BB4B1B680D780124AC402343B84CF0
:100440002360B74B08331B680D780124AC4023436D
:10045000B34C08342360231D1B680D780124AC4085
:10046000A343AF4C0C3423606CE00B680B2B34D8E7
:100470000B68072B31D9A94B1B690C78083CA500E8
:100480000F24AC40A343A54C236100E05CE023466D
:100490001B690C78083CA40000FA04F423439F4C29
:1004A00023619F4B1B680D780124AC4023439C4C77
:1004B00023609B4B08331B680D780124AC40234319
:1004C000974C08342360231D1B680D780124AC4031
:1004D000A343934C0C34236034E00B680F2B31D8CA
:1004E0000B680B2B2ED98D4B5B690C780C3CA5004F
:1004F0000F24AC40A343894C636123465B690C78AD
:100500000C3CA40000FA04F42343844C6361844B44
:100510001B680D780124AC402343814C2360804B41
:1005200008331B680D780124AC4023437C4C08340D
:100530002360231D1B680D780124AC40A343784C35
:100540000C34236062B6DCE00B69022BFBD172B67F
:10055000714B9B6943F001036F4CA3610B68032B44
:100560002DD86E4B9B680C78A5000F24AC40A3439C
:100570006A4CA36023469B680C78A40000FA04F43C
:100580002343664CA360664B1B680D780124AC4086
:100590002343634C2360624B0C331B680D780124AA
:1005A000AC4023435E4C0C342360231F1B680D7842
:1005B0000124AC40A3435A4C08342360A0E00B68EC
:1005C000072B32D80B68032B2FD9544BDB680C78E0
:1005D000241FA5000F24AC40A343504CE3602346E6
:1005E000DB680C78241FA40000FA04F423434B4C6E
:1005F000E3604B4B1B680D780124AC402343484C0F
:100600002360474B0C331B680D780124AC40234317
:10061000434C0C342360231F1B680D780124AC402D
:10062000A3433F4C083423606AE00B680B2B32D89D
:100630000B68072B2FD9394B1B690C78083CA50098
:100640000F24AC40A343354C236123461B690C782F
:10065000083CA40000FA04F42343304C2361304BDF
:100660001B680D780124AC4023432D4C23602C4B98
:100670000C331B680D780124AC402343284C0C3408
:100680002360231F1B680D780124AC40A343244C36
:100690000834236034E00B680F2B31D80B680B2B28
:1006A0002ED91E4B5B690C780C3CA5000F24AC4086
:1006B000A3431A4C636123465B690C780C3CA4008D
:1006C00000FA04F42343154C6361154B1B680D7845
:1006D0000124AC402343124C2360114B0C331B68A4
:1006E0000D780124AC4023430D4C0C342360231FB0
:1006F0001B680D780124AC40A343094C08342360E7
:1007000062B630BD00080140000C014000100140FD
:100710000014014000180140001002400000014098
:100720000004014010B52AB9C36801248C4063401D
:10073000C36006E0012A04D1C46801238B401C4336
:10074000C46010BD30B587B005460C461C21684614
:10075000FFF72CFD5848854206D15848806940F083
:1007600004005649886126E05548854206D1534821
:10077000806940F00800514988611CE05148854279
:1007800006D14E48806940F010004C49886112E063
:100790004D48854206D14948806940F020004749CC
:1007A000886108E04948854205D14448806940F0A5
:1007B0004000424988612068072832D8E068022852
:1007C00014D0E068012811D0E06803280ED0286812
:1007D00021788A000C219140884328602178890083
:1007E000606888402968084328604FE0E068022874
:1007F00005D0E068012802D0E068032846D12868C7
:1008000021788A000F219140884328606168E06860
:1008100040EA8100217889008840296808432860DF
:1008200034E02068072831D9E068022814D0E06855
:10083000012811D0E06803280ED0686821788A006A
:100840000C21914088436860217889006068884065
:1008500069680843686019E0E068022805D0E0682C
:10086000012802D0E068032810D1686821788A0046
:100870000F219140884368606168E06840EA810028
:10088000217889008840696808436860A068022868
:1008900004D1217801208840286107E0A068012860
:1008A00004D1207810300121814029612146284659
:1008B000FFF750FD07B030BD0008014000100240B6
:1008C000000C0140001001400014014000180140DC
:1008D00010B500F001F810BD0CB50020019000909B
:1008E0003348006840F480303149086000BF304828
:1008F000006800F4003000900198401C01900098BE
:1009000018B90198B0F5A06FF1D12948006800F43A
:10091000003010B10120009001E00020009000980C
:10092000012843D12348006840F0100021490860A5
:100930000846006820F0070008600846006840F09C
:10094000020008601A484068194948600846406833
:1009500048600846406840F4806048600846406847
:1009600020F47C1048600846406840F4E810486075
:100970000846006840F08070086000BF0C480068BE
:1009800000F000700028F9D00948406820F003000A
:10099000074948600846406840F00200486000BFD0
:1009A0000348406800F00C000828F9D10CBD000095
:1009B000001002400020024010B51348006840F0CB
:1009C00001001149086008464068104908400E4976
:1009D0004860084600680E4908400B490860084610
:1009E000006820F4802008600846406820F4FE007B
:1009F00048604FF41F008860FFF76AFF4FF0006007
:100A00000449086010BD0000001002400000FFF81B
:100A1000FFFFF6FE08ED00E000B585B01421684642
:100A2000FFF7C4FB032000900020019003200390F7
:100A30000020029069460E48FFF784FE04200090D3
:100A400008200190002003900220029001200490D1
:100A500069460748FFF776FE0A20012181404209D6
:100A6000920002F1E022C2F8001100BF05B000BD03
:100A700000080140FFF7D0FF012203210248FFF7E1
:100A800051FE62B600BFFEE7000801409C0A000864
:0C0A9000000000206006000028010008A3
:04000005080000ED02
:00000001FF
